MPASM 5.71  /HOME/FORTHNUTTER/MPLABXPROJECTS   2-14-2017  21:31:00         PAGE  1


LOC  OBJECT CODE     LINE SOURCE TEXT
  VALUE

                      00001         LIST P=18F4550, F=INHX32        ;directive to define processor
                      00002         
                      00003 #define PF
                      00004         include <p18f4550.inc>
                      00001         LIST
                      00002 
                      00003 ;==========================================================================
                      00004 ; Build date : Nov 17 2016
                      00005 ;  MPASM PIC18F4550 processor include
                      00006 ; 
                      00007 ;  (c) Copyright 1999-2016 Microchip Technology, All rights reserved
                      00008 ;==========================================================================
                      00009 
                      01765         LIST
                      00005         include "picforth.inc"
                      00001    #IFNDEF PICFORTH_INC
                      00002    #DEFINE PICFORTH_INC
                      00003 
                      00004 ; Copy the top of stack to wreg
                      00005 CPYW    macro
                      00006         movf    INDF2,W
                      00007         endm
                      00008         
                      00009    ;    Push W on stack         ( W -- )
                      00010 PUSHW   macro
                      00011         movwf   PREINC2
                      00012         endm
                      00013    
                      00014 ; POP data off stack        ( -- W )
                      00015 POPW    macro
                      00016         movf    POSTDEC2,W
                      00017         endm
                      00018         
                      00019 ; push literl on to stack   ( l -- )
                      00020 PSHL    macro   n   
                      00021         movlw   n
                      00022         movwf   PREINC2
                      00023         endm
                      00024 
                      00025 ; copy the top of stack to file
                      00026 CPYF    macro   n
                      00027         CPYW
                      00028         movwf   n
                      00029         endm
                      00030         
                      00031 ; push memory into stack ( f -- )
                      00032 PUSHF   macro   n
                      00033         movf    n,W
                      00034         PUSHW
                      00035         endm
                      00036         
                      00037 ; pop stack to memory ( -- f )
                      00038 POPF    macro   n
MPASM 5.71  /HOME/FORTHNUTTER/MPLABXPROJECTS   2-14-2017  21:31:00         PAGE  2


LOC  OBJECT CODE     LINE SOURCE TEXT
  VALUE

                      00039         POPW
                      00040         movwf   n
                      00041         endm
                      00042         
                      00043 ; inc top of data stack    ( -- )
                      00044 INC     macro
                      00045         incf    INDF2
                      00046         endm
                      00047 
                      00048 ; dec top of stack value ( a -- a )
                      00049 DEC     macro
                      00050         decf    INDF2
                      00051         endm
                      00052         
                      00053 ; add the two value on the stack ( a b -- c )
                      00054 ADD     macro
                      00055         popw
                      00056         addwf   INDF2
                      00057         endm
                      00058         
                      00059 ; sub two values on the data stack ( a b -- c )
                      00060 SUB     macro
                      00061         popw
                      00062         subwf   INDF2
                      00063         endm
                      00064         
                      00065 ; mul two values on the stack ( a b -- c d )
                      00066 MUL     macro
                      00067         popw
                      00068         mulwf   INDF2
                      00069         popw
                      00070         movf    PRODH,W
                      00071         pushw
                      00072         movf    PRODL,W
                      00073         pushw
                      00074         endm
                      00075         
                      00076 ; AND                   ( a b -- c ) 
                      00077 AND     macro
                      00078         POPW
                      00079         andwf   INDF2
                      00080         endm
                      00081 
                      00082 ;       OR                      ( a b -- a OR b )
                      00083 OR      macro
                      00084         POPW
                      00085         iorwf   INDF2
                      00086         endm
                      00087 
                      00088 
                      00089         
                      00090         
                      00091 ;************************************************
MPASM 5.71  /HOME/FORTHNUTTER/MPLABXPROJECTS   2-14-2017  21:31:00         PAGE  3


LOC  OBJECT CODE     LINE SOURCE TEXT
  VALUE

                      00092 ;       Bit manipulation
                      00093 ;************************************************
                      00094 
                      00095 ;       Bit set literal         ( a -- c )
                      00096 BSETL   macro n
                      00097         bsf     INDF2,n
                      00098         endm    
                      00099 ; bit clear literal             n ( a -- c )
                      00100 BCLRL   macro n
                      00101         bcf     INDF2,n
                      00102         endm
                      00103         
                      00104 ;************************************************
                      00105 ;       Shifting
                      00106 ;************************************************
                      00107 
                      00108 ;       Logical shift left              ( a -- a<< )
                      00109 LSL     macro
                      00110         rlncf   INDF2
                      00111         bcf     INDF2,0
                      00112         endm
                      00113 
                      00114 
                      00115 ;************************************************
                      00116 ;       Stack manipulation
                      00117 ;************************************************
                      00118 
                      00119 ;       ( a b -- a b b )
                      00120 DUP     macro
                      00121         movss   [0],[1]
                      00122         addfsr  FSR2,1
                      00123         endm
                      00124 
                      00125 
                      00126 ;       ( a b -- a )
                      00127 DROP    macro
                      00128         subfsr  FSR2,1
                      00129         endm
                      00130 
                      00131 
                      00132 ;       ( a b -- a b a )
                      00133 OVER    macro
                      00134         incf    FSR
                      00135         movfw   INDF
                      00136         decf    FSR
                      00137         decf    FSR
                      00138         movwf   INDF
                      00139         endm
                      00140 
                      00141 
                      00142 ;       ( a b -- b a )
                      00143 SWAP    macro
                      00144         subfsr  FSR2,1
MPASM 5.71  /HOME/FORTHNUTTER/MPLABXPROJECTS   2-14-2017  21:31:00         PAGE  4


LOC  OBJECT CODE     LINE SOURCE TEXT
  VALUE

                      00145         movss   [0],[2]
                      00146         movss   [1],[0]
                      00147         movss   [2],[1]
                      00148         addfsr  FSR2,1
                      00149         endm
                      00150 
                      00151 
                      00152 ;       ( a b c -- b c a )
                      00153 ROT     macro 
                      00154         subfsr  FSR2,2
                      00155         movss   [0],[3]
                      00156         movss   [1],[0]
                      00157         movss   [2],[1]
                      00158         movss   [3],[2]
                      00159         addfsr  FSR2,2
                      00160         endm
                      00161 
                      00162 
                      00163 ;       ( a b -- b )
                      00164 NIP     macro
                      00165         movfw   INDF
                      00166         incf    FSR
                      00167         movwf   INDF
                      00168         endm
                      00169 
                      00170 
                      00171 ;       ( a b -- b a b )
                      00172 TUCK    macro
                      00173         SWAP
                      00174         OVER
                      00175         endm
                      00176         
                      00177 
                      00178 ;************************************************
                      00179 ;       Logical operations
                      00180 ;************************************************
                      00181 
                      00182 ;       Test if zero            ( a -- a )
                      00183 TST     macro
                      00184         movf    INDF2
                      00185         endm    
                      00186         
                      00187         
                      00188 #IFNDEF PF
                      00189    extern pf_init
                      00190    extern pf_tst3
                      00191    extern pf_dec3
                      00192    extern pf_lsl4
                      00193    
                      00194 #ENDIF
                      00195    #ENDIF
                      00196 
                      00197 
MPASM 5.71  /HOME/FORTHNUTTER/MPLABXPROJECTS   2-14-2017  21:31:00         PAGE  5


LOC  OBJECT CODE     LINE SOURCE TEXT
  VALUE

                      00006         
  0000                00007         global  pf_init
  0000                00008         global  pf_tst3
  0000                00009         global  pf_dec3
  0000                00010         global  pf_lsl4
                      00011         
                      00012         UDATA
                      00013         
000000                00014 pfstack RES 16
000016                00015 pfsend  RES 1
000017                00016 pftemp  RES 1
                      00017 
                      00018 
                      00019         code
                      00020         
                      00021 ;       Two to the power of a   ( a -- 1<<a )
000000                00022 twoexp:
                      00023         PSHL    1
000000 0E01               M         movlw   1
000002 6EDC               M         movwf   PREINC2
                      00024 ;       movwf   ftemp1
000004 0E01           00025         movlw   1
                      00026 ;       btfsc   ftemp1,1
000006 0E04           00027         movlw   4
                      00028 ;       movwf   INDF
                      00029 ;       btfsc   ftemp1,0
                      00030 ;       addwf   INDF
                      00031 ;       btfsc   ftemp1,2
                      00032 ;       swapf   INDF
000008 0012           00033         return
                      00034 
00000A                00035 tst2:
                      00036     TST
00000A 52DF               M         movf    INDF2
00000C E1??           00037     bnz     tst2n
                      00038     SWAP
00000E E981               M         subfsr  FSR2,1
000010 EB80 F002          M         movss   [0],[2]
000014 EB81 F000          M         movss   [1],[0]
000018 EB82 F001          M         movss   [2],[1]
00001C E881               M         addfsr  FSR2,1
                      00039     
00001E                00040 tst2n:
00001E 0012           00041     return
                      00042     
                      00043 ; test three bytes on stack
                      00044 ; ( g h l -- g h l ? )
000020                00045 pf_tst3:
000020 0E00           00046     movlw   0
                      00047     ROT         ; get the highest
000022 E982               M         subfsr  FSR2,2
000024 EB80 F003          M         movss   [0],[3]
000028 EB81 F000          M         movss   [1],[0]
MPASM 5.71  /HOME/FORTHNUTTER/MPLABXPROJECTS   2-14-2017  21:31:00         PAGE  6


LOC  OBJECT CODE     LINE SOURCE TEXT
  VALUE

00002C EB82 F001          M         movss   [2],[1]
000030 EB83 F002          M         movss   [3],[2]
000034 E882               M         addfsr  FSR2,2
                      00048     TST         ; test to see if zero
000036 52DF               M         movf    INDF2
000038 E0??           00049     bz      tst31
00003A 80E8           00050     bsf     WREG,0
00003C                00051 tst31:
                      00052     ROT         ; get high byte
00003C E982               M         subfsr  FSR2,2
00003E EB80 F003          M         movss   [0],[3]
000042 EB81 F000          M         movss   [1],[0]
000046 EB82 F001          M         movss   [2],[1]
00004A EB83 F002          M         movss   [3],[2]
00004E E882               M         addfsr  FSR2,2
                      00053     TST         ; test for zero
000050 52DF               M         movf    INDF2
000052 E0??           00054     bz      tst32
000054 82E8           00055     bsf     WREG,1
000056                00056 tst32:
                      00057     ROT         ; get lowest
000056 E982               M         subfsr  FSR2,2
000058 EB80 F003          M         movss   [0],[3]
00005C EB81 F000          M         movss   [1],[0]
000060 EB82 F001          M         movss   [2],[1]
000064 EB83 F002          M         movss   [3],[2]
000068 E882               M         addfsr  FSR2,2
                      00058     TST
00006A 52DF               M         movf    INDF2
00006C E0??           00059     bz      tst33
00006E 84E8           00060     bsf     WREG,2
000070                00061 tst33:
                      00062     PUSHW
000070 6EDC               M         movwf   PREINC2
000072 0012           00063     return
                      00064 
                      00065     
                      00066 ; Decrement Three Bytes on stack
                      00067 ; ( g h l -- ghl+1 )
000074                00068 pf_dec3:
                      00069     TST
000074 52DF               M         movf    INDF2
000076 E1??           00070     bnz     dec31
                      00071     SWAP
000078 E981               M         subfsr  FSR2,1
00007A EB80 F002          M         movss   [0],[2]
00007E EB81 F000          M         movss   [1],[0]
000082 EB82 F001          M         movss   [2],[1]
000086 E881               M         addfsr  FSR2,1
                      00072     TST
000088 52DF               M         movf    INDF2
                      00073     SWAP
00008A E981               M         subfsr  FSR2,1
MPASM 5.71  /HOME/FORTHNUTTER/MPLABXPROJECTS   2-14-2017  21:31:00         PAGE  7


LOC  OBJECT CODE     LINE SOURCE TEXT
  VALUE

00008C EB80 F002          M         movss   [0],[2]
000090 EB81 F000          M         movss   [1],[0]
000094 EB82 F001          M         movss   [2],[1]
000098 E881               M         addfsr  FSR2,1
00009A E1??           00074     bnz     dec32
                      00075     ROT
00009C E982               M         subfsr  FSR2,2
00009E EB80 F003          M         movss   [0],[3]
0000A2 EB81 F000          M         movss   [1],[0]
0000A6 EB82 F001          M         movss   [2],[1]
0000AA EB83 F002          M         movss   [3],[2]
0000AE E882               M         addfsr  FSR2,2
                      00076     TST
0000B0 52DF               M         movf    INDF2
                      00077     ROT
0000B2 E982               M         subfsr  FSR2,2
0000B4 EB80 F003          M         movss   [0],[3]
0000B8 EB81 F000          M         movss   [1],[0]
0000BC EB82 F001          M         movss   [2],[1]
0000C0 EB83 F002          M         movss   [3],[2]
0000C4 E882               M         addfsr  FSR2,2
                      00078     ROT
0000C6 E982               M         subfsr  FSR2,2
0000C8 EB80 F003          M         movss   [0],[3]
0000CC EB81 F000          M         movss   [1],[0]
0000D0 EB82 F001          M         movss   [2],[1]
0000D4 EB83 F002          M         movss   [3],[2]
0000D8 E882               M         addfsr  FSR2,2
0000DA E1??           00079     bnz     dec33
0000DC 0012           00080     return
                      00081     
0000DE                00082 dec33:
                      00083     ROT
0000DE E982               M         subfsr  FSR2,2
0000E0 EB80 F003          M         movss   [0],[3]
0000E4 EB81 F000          M         movss   [1],[0]
0000E8 EB82 F001          M         movss   [2],[1]
0000EC EB83 F002          M         movss   [3],[2]
0000F0 E882               M         addfsr  FSR2,2
                      00084     DEC
0000F2 06DF               M         decf    INDF2
                      00085     ROT
0000F4 E982               M         subfsr  FSR2,2
0000F6 EB80 F003          M         movss   [0],[3]
0000FA EB81 F000          M         movss   [1],[0]
0000FE EB82 F001          M         movss   [2],[1]
000102 EB83 F002          M         movss   [3],[2]
000106 E882               M         addfsr  FSR2,2
                      00086     ROT
000108 E982               M         subfsr  FSR2,2
00010A EB80 F003          M         movss   [0],[3]
00010E EB81 F000          M         movss   [1],[0]
000112 EB82 F001          M         movss   [2],[1]
MPASM 5.71  /HOME/FORTHNUTTER/MPLABXPROJECTS   2-14-2017  21:31:00         PAGE  8


LOC  OBJECT CODE     LINE SOURCE TEXT
  VALUE

000116 EB83 F002          M         movss   [3],[2]
00011A E882               M         addfsr  FSR2,2
                      00087     
00011C                00088 dec32:
                      00089     SWAP
00011C E981               M         subfsr  FSR2,1
00011E EB80 F002          M         movss   [0],[2]
000122 EB81 F000          M         movss   [1],[0]
000126 EB82 F001          M         movss   [2],[1]
00012A E881               M         addfsr  FSR2,1
                      00090     DEC
00012C 06DF               M         decf    INDF2
                      00091     SWAP
00012E E981               M         subfsr  FSR2,1
000130 EB80 F002          M         movss   [0],[2]
000134 EB81 F000          M         movss   [1],[0]
000138 EB82 F001          M         movss   [2],[1]
00013C E881               M         addfsr  FSR2,1
                      00092 
00013E                00093 dec31:
                      00094     DEC
00013E 06DF               M         decf    INDF2
000140 0012           00095     return
                      00096     
                      00097 
                      00098 ;*************************************
                      00099 ;Description: shift left 4
                      00100 ;Parameter: data on stack to be shifted
                      00101 ;Return:    the new shifted data
                      00102 ; ( d -- e=d<<4 )
                      00103 ;**************************************
000142                00104 pf_lsl4:
                      00105     LSL
000142 46DF               M         rlncf   INDF2
000144 90DF               M         bcf     INDF2,0
                      00106     LSL
000146 46DF               M         rlncf   INDF2
000148 90DF               M         bcf     INDF2,0
                      00107     LSL
00014A 46DF               M         rlncf   INDF2
00014C 90DF               M         bcf     INDF2,0
                      00108     LSL
00014E 46DF               M         rlncf   INDF2
000150 90DF               M         bcf     INDF2,0
000152 0012           00109     return
                      00110 
                      00111 
                      00112 
                      00113 
                      00114 ;       Initialize and set stack pointer
000154                00115 pf_init:
000154 EE?? F0??      00116         lfsr    FSR2,pfstack-1
000158 0012           00117 fnop4   return
MPASM 5.71  /HOME/FORTHNUTTER/MPLABXPROJECTS   2-14-2017  21:31:00         PAGE  9


LOC  OBJECT CODE     LINE SOURCE TEXT
  VALUE

                      00118         
                      00119         
                      00120         end
MPASM 5.71  /HOME/FORTHNUTTER/MPLABXPROJECTS   2-14-2017  21:31:00         PAGE 10


SYMBOL TABLE
  LABEL                             VALUE 

A                                 00000000
ABDEN                             00000000
ABDOVF                            00000007
ACCESS                            00000000
ACKDT                             00000005
ACKEN                             00000004
ACKSTAT                           00000006
ACQT0                             00000003
ACQT1                             00000004
ACQT2                             00000005
ACTVIE                            00000002
ACTVIF                            00000002
ADCON0                            00000FC2
ADCON1                            00000FC1
ADCON2                            00000FC0
ADCS0                             00000000
ADCS1                             00000001
ADCS2                             00000002
ADD                               
ADDEN                             00000003
ADDR0                             00000000
ADDR1                             00000001
ADDR2                             00000002
ADDR3                             00000003
ADDR4                             00000004
ADDR5                             00000005
ADDR6                             00000006
ADEN                              00000003
ADFM                              00000007
ADIE                              00000006
ADIF                              00000006
ADIP                              00000006
ADON                              00000000
ADRES                             00000FC3
ADRESH                            00000FC4
ADRESL                            00000FC3
AN0                               00000000
AN1                               00000001
AN2                               00000002
AN3                               00000003
AN4                               00000005
AND                               
BANKED                            00000001
BAUDCON                           00000FB8
BAUDCTL                           00000FB8
BCLIE                             00000003
BCLIF                             00000003
BCLIP                             00000003
BCLRL                             
BF                                00000000
BGST                              00000005
BOR                               00000000
BRG16                             00000003
MPASM 5.71  /HOME/FORTHNUTTER/MPLABXPROJECTS   2-14-2017  21:31:00         PAGE 11


SYMBOL TABLE
  LABEL                             VALUE 

BRGH                              00000002
BSETL                             
BSR                               00000FE0
BTOEE                             00000004
BTOEF                             00000004
BTSEE                             00000007
BTSEF                             00000007
C                                 00000000
C1INV                             00000004
C1OUT                             00000006
C2INV                             00000005
C2OUT                             00000007
CCP1                              00000002
CCP1AS                            00000FB6
CCP1CON                           00000FBD
CCP1DEL                           00000FB7
CCP1IE                            00000002
CCP1IF                            00000002
CCP1IP                            00000002
CCP1M0                            00000000
CCP1M1                            00000001
CCP1M2                            00000002
CCP1M3                            00000003
CCP2CON                           00000FBA
CCP2IE                            00000000
CCP2IF                            00000000
CCP2IP                            00000000
CCP2M0                            00000000
CCP2M1                            00000001
CCP2M2                            00000002
CCP2M3                            00000003
CCPR1                             00000FBE
CCPR1H                            00000FBF
CCPR1L                            00000FBE
CCPR2                             00000FBB
CCPR2H                            00000FBC
CCPR2L                            00000FBB
CFGS                              00000006
CHS0                              00000002
CHS1                              00000003
CHS2                              00000004
CHS3                              00000005
CIS                               00000003
CK                                00000006
CK1SPP                            00000000
CK2SPP                            00000001
CKE                               00000006
CKP                               00000004
CLK1EN                            00000004
CLKCFG0                           00000006
CLKCFG1                           00000007
CM0                               00000000
CM1                               00000001
MPASM 5.71  /HOME/FORTHNUTTER/MPLABXPROJECTS   2-14-2017  21:31:00         PAGE 12


SYMBOL TABLE
  LABEL                             VALUE 

CM2                               00000002
CMCON                             00000FB4
CMIE                              00000006
CMIF                              00000006
CMIP                              00000006
CPYF                              
CPYW                              
CRC16EE                           00000002
CRC16EF                           00000002
CRC5EE                            00000001
CRC5EF                            00000001
CREN                              00000004
CSEN                              00000005
CSRC                              00000007
CVR0                              00000000
CVR1                              00000001
CVR2                              00000002
CVR3                              00000003
CVRCON                            00000FB5
CVREF                             00000004
CVREN                             00000007
CVROE                             00000006
CVRR                              00000005
CVRSS                             00000004
D                                 00000005
DATA_ADDRESS                      00000005
DC                                00000001
DC1B0                             00000004
DC1B1                             00000005
DC2B0                             00000004
DC2B1                             00000005
DDRA                              TRISA
DDRB                              TRISB
DDRC                              TRISC
DDRD                              TRISD
DDRE                              TRISE
DEC                               
DFN8EE                            00000003
DFN8EF                            00000003
DIR                               00000002
DONE                              00000001
DROP                              
DUP                               
D_A                               00000005
D_NOT_A                           00000005
ECCP1AS                           00000FB6
ECCP1CON                          00000FBD
ECCP1DEL                          00000FB7
ECCPAS0                           00000004
ECCPAS1                           00000005
ECCPAS2                           00000006
ECCPASE                           00000007
EEADR                             00000FA9
MPASM 5.71  /HOME/FORTHNUTTER/MPLABXPROJECTS   2-14-2017  21:31:00         PAGE 13


SYMBOL TABLE
  LABEL                             VALUE 

EECON1                            00000FA6
EECON2                            00000FA7
EEDATA                            00000FA8
EEIE                              00000004
EEIF                              00000004
EEIP                              00000004
EEPGD                             00000007
ENDP0                             00000003
ENDP1                             00000004
ENDP2                             00000005
ENDP3                             00000006
EPCONDIS                          00000003
EPHSHK                            00000004
EPINEN                            00000001
EPOUTEN                           00000002
EPSTALL                           00000000
FAST                              00000001
FERR                              00000002
FLTS                              00000002
FREE                              00000004
FRM0                              00000000
FRM1                              00000001
FRM10                             00000002
FRM2                              00000002
FRM3                              00000003
FRM4                              00000004
FRM5                              00000005
FRM6                              00000006
FRM7                              00000007
FRM8                              00000000
FRM9                              00000001
FSEN                              00000002
FSR0                              00000000
FSR0H                             00000FEA
FSR0L                             00000FE9
FSR1                              00000001
FSR1H                             00000FE2
FSR1L                             00000FE1
FSR2                              00000002
FSR2H                             00000FDA
FSR2L                             00000FD9
GCEN                              00000007
GIE                               00000007
GIEH                              00000007
GIEL                              00000006
GIE_GIEH                          00000007
GO                                00000001
GO_DONE                           00000001
GO_NOT_DONE                       00000001
HLVDCON                           00000FD2
HLVDEN                            00000004
HLVDIE                            00000002
HLVDIF                            00000002
MPASM 5.71  /HOME/FORTHNUTTER/MPLABXPROJECTS   2-14-2017  21:31:00         PAGE 14


SYMBOL TABLE
  LABEL                             VALUE 

HLVDIN                            00000005
HLVDIP                            00000002
HLVDL0                            00000000
HLVDL1                            00000001
HLVDL2                            00000002
HLVDL3                            00000003
I2C_DAT                           00000005
I2C_READ                          00000002
I2C_START                         00000003
I2C_STOP                          00000004
IDLEIE                            00000004
IDLEIF                            00000004
IDLEN                             00000007
INC                               
INDF0                             00000FEF
INDF1                             00000FE7
INDF2                             00000FDF
INT0                              00000000
INT0E                             00000004
INT0F                             00000001
INT0IE                            00000004
INT0IF                            00000001
INT1                              00000001
INT1E                             00000003
INT1F                             00000000
INT1IE                            00000003
INT1IF                            00000000
INT1IP                            00000006
INT1P                             00000006
INT2                              00000002
INT2E                             00000004
INT2F                             00000001
INT2IE                            00000004
INT2IF                            00000001
INT2IP                            00000007
INT2P                             00000007
INTCON                            00000FF2
INTCON2                           00000FF1
INTCON3                           00000FF0
INTEDG0                           00000006
INTEDG1                           00000005
INTEDG2                           00000004
INTSRC                            00000007
IOFS                              00000002
IPEN                              00000007
IPR1                              00000F9F
IPR2                              00000FA2
IRCF0                             00000004
IRCF1                             00000005
IRCF2                             00000006
IRVST                             00000005
IVRST                             00000005
LATA                              00000F89
MPASM 5.71  /HOME/FORTHNUTTER/MPLABXPROJECTS   2-14-2017  21:31:00         PAGE 15


SYMBOL TABLE
  LABEL                             VALUE 

LATA0                             00000000
LATA1                             00000001
LATA2                             00000002
LATA3                             00000003
LATA4                             00000004
LATA5                             00000005
LATA6                             00000006
LATB                              00000F8A
LATB0                             00000000
LATB1                             00000001
LATB2                             00000002
LATB3                             00000003
LATB4                             00000004
LATB5                             00000005
LATB6                             00000006
LATB7                             00000007
LATC                              00000F8B
LATC0                             00000000
LATC1                             00000001
LATC2                             00000002
LATC6                             00000006
LATC7                             00000007
LATD                              00000F8C
LATD0                             00000000
LATD1                             00000001
LATD2                             00000002
LATD3                             00000003
LATD4                             00000004
LATD5                             00000005
LATD6                             00000006
LATD7                             00000007
LATE                              00000F8D
LATE0                             00000000
LATE1                             00000001
LATE2                             00000002
LSL                               
LVDCON                            00000FD2
LVDEN                             00000004
LVDIE                             00000002
LVDIF                             00000002
LVDIN                             00000005
LVDIP                             00000002
LVDL0                             00000000
LVDL1                             00000001
LVDL2                             00000002
LVDL3                             00000003
LVV0                              00000000
LVV1                              00000001
LVV2                              00000002
LVV3                              00000003
MUL                               
N                                 00000004
NIP                               
MPASM 5.71  /HOME/FORTHNUTTER/MPLABXPROJECTS   2-14-2017  21:31:00         PAGE 16


SYMBOL TABLE
  LABEL                             VALUE 

NOT_A                             00000005
NOT_ADDRESS                       00000005
NOT_BOR                           00000000
NOT_DONE                          00000001
NOT_IPEN                          00000007
NOT_PD                            00000002
NOT_POR                           00000001
NOT_RBPU                          00000007
NOT_RI                            00000004
NOT_T1SYNC                        00000002
NOT_T3SYNC                        00000002
NOT_TO                            00000003
NOT_W                             00000002
NOT_WRITE                         00000002
OERR                              00000001
OESPP                             00000002
OR                                
OSC2                              00000006
OSCCON                            00000FD3
OSCFIE                            00000007
OSCFIF                            00000007
OSCFIP                            00000007
OSCTUNE                           00000F9B
OSTS                              00000003
OV                                00000003
OVER                              
P                                 00000004
P1A                               00000002
P1M0                              00000006
P1M1                              00000007
PC                                00000FF9
PCFG0                             00000000
PCFG1                             00000001
PCFG2                             00000002
PCFG3                             00000003
PCL                               00000FF9
PCLATH                            00000FFA
PCLATU                            00000FFB
PD                                00000002
PDC0                              00000000
PDC1                              00000001
PDC2                              00000002
PDC3                              00000003
PDC4                              00000004
PDC5                              00000005
PDC6                              00000006
PEIE                              00000006
PEIE_GIEL                         00000006
PEN                               00000002
PF                                
PGC                               00000006
PGD                               00000007
PGM                               00000005
MPASM 5.71  /HOME/FORTHNUTTER/MPLABXPROJECTS   2-14-2017  21:31:00         PAGE 17


SYMBOL TABLE
  LABEL                             VALUE 

PICFORTH_INC                      
PIDEE                             00000000
PIDEF                             00000000
PIE1                              00000F9D
PIE2                              00000FA0
PIR1                              00000F9E
PIR2                              00000FA1
PKTDIS                            00000004
PLUSW0                            00000FEB
PLUSW1                            00000FE3
PLUSW2                            00000FDB
POPF                              
POPW                              
POR                               00000001
PORTA                             00000F80
PORTB                             00000F81
PORTC                             00000F82
PORTD                             00000F83
PORTE                             00000F84
POSTDEC0                          00000FED
POSTDEC1                          00000FE5
POSTDEC2                          00000FDD
POSTINC0                          00000FEE
POSTINC1                          00000FE6
POSTINC2                          00000FDE
PPB0                              00000000
PPB1                              00000001
PPBI                              00000001
PPBRST                            00000006
PR2                               00000FCB
PREINC0                           00000FEC
PREINC1                           00000FE4
PREINC2                           00000FDC
PROD                              00000FF3
PRODH                             00000FF4
PRODL                             00000FF3
PRSEN                             00000007
PSA                               00000003
PSHL                              
PSSAC0                            00000002
PSSAC1                            00000003
PSSBD0                            00000000
PSSBD1                            00000001
PUSHF                             
PUSHW                             
R                                 00000002
RA0                               00000000
RA1                               00000001
RA2                               00000002
RA3                               00000003
RA4                               00000004
RA5                               00000005
RA6                               00000006
MPASM 5.71  /HOME/FORTHNUTTER/MPLABXPROJECTS   2-14-2017  21:31:00         PAGE 18


SYMBOL TABLE
  LABEL                             VALUE 

RB0                               00000000
RB1                               00000001
RB2                               00000002
RB3                               00000003
RB4                               00000004
RB5                               00000005
RB6                               00000006
RB7                               00000007
RBIE                              00000003
RBIF                              00000000
RBIP                              00000000
RBPU                              00000007
RC0                               00000000
RC1                               00000001
RC2                               00000002
RC4                               00000004
RC5                               00000005
RC6                               00000006
RC7                               00000007
RCEN                              00000003
RCIDL                             00000006
RCIE                              00000005
RCIF                              00000005
RCIP                              00000005
RCMT                              00000006
RCON                              00000FD0
RCREG                             00000FAE
RCSTA                             00000FAB
RD                                00000000
RD0                               00000000
RD1                               00000001
RD16                              00000007
RD2                               00000002
RD3                               00000003
RD4                               00000004
RD5                               00000005
RD6                               00000006
RD7                               00000007
RDPU                              00000007
RDSPP                             00000007
RE0                               00000000
RE1                               00000001
RE2                               00000002
RE3                               00000003
READ_WRITE                        00000002
RESUME                            00000002
RI                                00000004
ROT                               
RSEN                              00000001
RX                                00000007
RX9                               00000006
RX9D                              00000000
RXDTP                             00000005
MPASM 5.71  /HOME/FORTHNUTTER/MPLABXPROJECTS   2-14-2017  21:31:00         PAGE 19


SYMBOL TABLE
  LABEL                             VALUE 

R_NOT_W                           00000002
R_W                               00000002
S                                 00000003
SBOREN                            00000006
SCKP                              00000004
SCS0                              00000000
SCS1                              00000001
SE0                               00000005
SEN                               00000000
SENDB                             00000003
SMP                               00000007
SOFIE                             00000006
SOFIF                             00000006
SPBRG                             00000FAF
SPBRGH                            00000FB0
SPEN                              00000007
SPP0                              00000000
SPP1                              00000001
SPP2                              00000002
SPP3                              00000003
SPP4                              00000004
SPP5                              00000005
SPP6                              00000006
SPP7                              00000007
SPPBUSY                           00000004
SPPCFG                            00000F63
SPPCON                            00000F65
SPPDATA                           00000F62
SPPEN                             00000000
SPPEPS                            00000F64
SPPIE                             00000007
SPPIF                             00000007
SPPIP                             00000007
SPPOWN                            00000001
SREN                              00000005
SSPADD                            00000FC8
SSPBUF                            00000FC9
SSPCON1                           00000FC6
SSPCON2                           00000FC5
SSPEN                             00000005
SSPIE                             00000003
SSPIF                             00000003
SSPIP                             00000003
SSPM0                             00000000
SSPM1                             00000001
SSPM2                             00000002
SSPM3                             00000003
SSPOV                             00000006
SSPSTAT                           00000FC7
STALLIE                           00000005
STALLIF                           00000005
STATUS                            00000FD8
STKFUL                            00000007
MPASM 5.71  /HOME/FORTHNUTTER/MPLABXPROJECTS   2-14-2017  21:31:00         PAGE 20


SYMBOL TABLE
  LABEL                             VALUE 

STKOVF                            00000007
STKPTR                            00000FFC
STKPTR0                           00000000
STKPTR1                           00000001
STKPTR2                           00000002
STKPTR3                           00000003
STKPTR4                           00000004
STKUNF                            00000006
SUB                               
SUSPND                            00000001
SWAP                              
SWDTE                             00000000
SWDTEN                            00000000
SYNC                              00000004
T08BIT                            00000006
T0CKI                             00000004
T0CON                             00000FD5
T0CS                              00000005
T0IE                              00000005
T0IF                              00000002
T0IP                              00000002
T0PS0                             00000000
T0PS1                             00000001
T0PS2                             00000002
T0SE                              00000004
T13CKI                            00000000
T1CKPS0                           00000004
T1CKPS1                           00000005
T1CON                             00000FCD
T1OSCEN                           00000003
T1OSI                             00000001
T1OSO                             00000000
T1RUN                             00000006
T1SYNC                            00000002
T2CKPS0                           00000000
T2CKPS1                           00000001
T2CON                             00000FCA
T2OUTPS0                          00000003
T2OUTPS1                          00000004
T2OUTPS2                          00000005
T2OUTPS3                          00000006
T3CCP1                            00000003
T3CCP2                            00000006
T3CKPS0                           00000004
T3CKPS1                           00000005
T3CON                             00000FB1
T3NSYNC                           00000002
T3SYNC                            00000002
TABLAT                            00000FF5
TBLPTR                            00000FF6
TBLPTRH                           00000FF7
TBLPTRL                           00000FF6
TBLPTRU                           00000FF8
MPASM 5.71  /HOME/FORTHNUTTER/MPLABXPROJECTS   2-14-2017  21:31:00         PAGE 21


SYMBOL TABLE
  LABEL                             VALUE 

TMR0                              00000FD6
TMR0H                             00000FD7
TMR0IE                            00000005
TMR0IF                            00000002
TMR0IP                            00000002
TMR0L                             00000FD6
TMR0ON                            00000007
TMR1                              00000FCE
TMR1CS                            00000001
TMR1H                             00000FCF
TMR1IE                            00000000
TMR1IF                            00000000
TMR1IP                            00000000
TMR1L                             00000FCE
TMR1ON                            00000000
TMR2                              00000FCC
TMR2IE                            00000001
TMR2IF                            00000001
TMR2IP                            00000001
TMR2ON                            00000002
TMR3                              00000FB2
TMR3CS                            00000001
TMR3H                             00000FB3
TMR3IE                            00000001
TMR3IF                            00000001
TMR3IP                            00000001
TMR3L                             00000FB2
TMR3ON                            00000000
TO                                00000003
TOS                               00000FFD
TOSH                              00000FFE
TOSL                              00000FFD
TOSU                              00000FFF
TOUTPS0                           00000003
TOUTPS1                           00000004
TOUTPS2                           00000005
TOUTPS3                           00000006
TRISA                             00000F92
TRISA0                            00000000
TRISA1                            00000001
TRISA2                            00000002
TRISA3                            00000003
TRISA4                            00000004
TRISA5                            00000005
TRISA6                            00000006
TRISB                             00000F93
TRISB0                            00000000
TRISB1                            00000001
TRISB2                            00000002
TRISB3                            00000003
TRISB4                            00000004
TRISB5                            00000005
TRISB6                            00000006
MPASM 5.71  /HOME/FORTHNUTTER/MPLABXPROJECTS   2-14-2017  21:31:00         PAGE 22


SYMBOL TABLE
  LABEL                             VALUE 

TRISB7                            00000007
TRISC                             00000F94
TRISC0                            00000000
TRISC1                            00000001
TRISC2                            00000002
TRISC6                            00000006
TRISC7                            00000007
TRISD                             00000F95
TRISD0                            00000000
TRISD1                            00000001
TRISD2                            00000002
TRISD3                            00000003
TRISD4                            00000004
TRISD5                            00000005
TRISD6                            00000006
TRISD7                            00000007
TRISE                             00000F96
TRISE0                            00000000
TRISE1                            00000001
TRISE2                            00000002
TRMT                              00000001
TRNIE                             00000003
TRNIF                             00000003
TST                               
TUCK                              
TUN0                              00000000
TUN1                              00000001
TUN2                              00000002
TUN3                              00000003
TUN4                              00000004
TX                                00000006
TX9                               00000006
TX9D                              00000000
TXCKP                             00000004
TXEN                              00000005
TXIE                              00000004
TXIF                              00000004
TXIP                              00000004
TXREG                             00000FAD
TXSTA                             00000FAC
UA                                00000001
UADDR                             00000F6E
UCFG                              00000F6F
UCON                              00000F6D
UEIE                              00000F6B
UEIR                              00000F6A
UEP0                              00000F70
UEP1                              00000F71
UEP10                             00000F7A
UEP11                             00000F7B
UEP12                             00000F7C
UEP13                             00000F7D
UEP14                             00000F7E
MPASM 5.71  /HOME/FORTHNUTTER/MPLABXPROJECTS   2-14-2017  21:31:00         PAGE 23


SYMBOL TABLE
  LABEL                             VALUE 

UEP15                             00000F7F
UEP2                              00000F72
UEP3                              00000F73
UEP4                              00000F74
UEP5                              00000F75
UEP6                              00000F76
UEP7                              00000F77
UEP8                              00000F78
UEP9                              00000F79
UERRIE                            00000001
UERRIF                            00000001
UFRM                              00000F66
UFRMH                             00000F67
UFRML                             00000F66
UIE                               00000F69
UIR                               00000F68
UOEMON                            00000006
UPUEN                             00000004
URSTIE                            00000000
URSTIF                            00000000
USBEN                             00000003
USBIE                             00000005
USBIF                             00000005
USBIP                             00000005
USTAT                             00000F6C
UTEYE                             00000007
UTRDIS                            00000003
VCFG0                             00000004
VCFG1                             00000005
VDIRMAG                           00000007
VREFM                             00000002
VREFP                             00000003
W                                 00000000
WCOL                              00000007
WDTCON                            00000FD1
WR                                00000001
WREG                              00000FE8
WREN                              00000002
WRERR                             00000003
WRSPP                             00000006
WS0                               00000000
WS1                               00000001
WS2                               00000002
WS3                               00000003
WUE                               00000001
Z                                 00000002
_BORV_0_2L                        000000E7
_BORV_1_2L                        000000EF
_BORV_2_2L                        000000F7
_BORV_3_2L                        000000FF
_BOR_OFF_2L                       000000F9
_BOR_ON_2L                        000000FF
_BOR_ON_ACTIVE_2L                 000000FD
MPASM 5.71  /HOME/FORTHNUTTER/MPLABXPROJECTS   2-14-2017  21:31:00         PAGE 24


SYMBOL TABLE
  LABEL                             VALUE 

_BOR_SOFT_2L                      000000FB
_CCP2MX_OFF_3H                    000000FE
_CCP2MX_ON_3H                     000000FF
_CONFIG1H                         00300001
_CONFIG1L                         00300000
_CONFIG2H                         00300003
_CONFIG2L                         00300002
_CONFIG3H                         00300005
_CONFIG4L                         00300006
_CONFIG5H                         00300009
_CONFIG5L                         00300008
_CONFIG6H                         0030000B
_CONFIG6L                         0030000A
_CONFIG7H                         0030000D
_CONFIG7L                         0030000C
_CP0_OFF_5L                       000000FF
_CP0_ON_5L                        000000FE
_CP1_OFF_5L                       000000FF
_CP1_ON_5L                        000000FD
_CP2_OFF_5L                       000000FF
_CP2_ON_5L                        000000FB
_CP3_OFF_5L                       000000FF
_CP3_ON_5L                        000000F7
_CPB_OFF_5H                       000000FF
_CPB_ON_5H                        000000BF
_CPD_OFF_5H                       000000FF
_CPD_ON_5H                        0000007F
_CPUDIV_OSC1_PLL2_1L              000000E7
_CPUDIV_OSC2_PLL3_1L              000000EF
_CPUDIV_OSC3_PLL4_1L              000000F7
_CPUDIV_OSC4_PLL6_1L              000000FF
_DEBUG_OFF_4L                     000000FF
_DEBUG_ON_4L                      0000007F
_DEVID1                           003FFFFE
_DEVID2                           003FFFFF
_EBTR0_OFF_7L                     000000FF
_EBTR0_ON_7L                      000000FE
_EBTR1_OFF_7L                     000000FF
_EBTR1_ON_7L                      000000FD
_EBTR2_OFF_7L                     000000FF
_EBTR2_ON_7L                      000000FB
_EBTR3_OFF_7L                     000000FF
_EBTR3_ON_7L                      000000F7
_EBTRB_OFF_7H                     000000FF
_EBTRB_ON_7H                      000000BF
_FCMEN_OFF_1H                     000000BF
_FCMEN_ON_1H                      000000FF
_FOSC_ECIO_EC_1H                  000000F4
_FOSC_ECPLLIO_EC_1H               000000F6
_FOSC_ECPLL_EC_1H                 000000F7
_FOSC_EC_EC_1H                    000000F5
_FOSC_HSPLL_HS_1H                 000000FE
_FOSC_HS_1H                       000000FC
MPASM 5.71  /HOME/FORTHNUTTER/MPLABXPROJECTS   2-14-2017  21:31:00         PAGE 25


SYMBOL TABLE
  LABEL                             VALUE 

_FOSC_INTOSCIO_EC_1H              000000F8
_FOSC_INTOSC_EC_1H                000000F9
_FOSC_INTOSC_HS_1H                000000FB
_FOSC_INTOSC_XT_1H                000000FA
_FOSC_XTPLL_XT_1H                 000000F2
_FOSC_XT_XT_1H                    000000F0
_ICPRT_OFF_4L                     000000DF
_ICPRT_ON_4L                      000000FF
_IDLOC0                           00200000
_IDLOC1                           00200001
_IDLOC2                           00200002
_IDLOC3                           00200003
_IDLOC4                           00200004
_IDLOC5                           00200005
_IDLOC6                           00200006
_IDLOC7                           00200007
_IESO_OFF_1H                      0000007F
_IESO_ON_1H                       000000FF
_LPT1OSC_OFF_3H                   000000FB
_LPT1OSC_ON_3H                    000000FF
_LVP_OFF_4L                       000000FB
_LVP_ON_4L                        000000FF
_MCLRE_OFF_3H                     0000007F
_MCLRE_ON_3H                      000000FF
_PBADEN_OFF_3H                    000000FD
_PBADEN_ON_3H                     000000FF
_PLLDIV_10_1L                     000000FE
_PLLDIV_12_1L                     000000FF
_PLLDIV_1_1L                      000000F8
_PLLDIV_2_1L                      000000F9
_PLLDIV_3_1L                      000000FA
_PLLDIV_4_1L                      000000FB
_PLLDIV_5_1L                      000000FC
_PLLDIV_6_1L                      000000FD
_PWRT_OFF_2L                      000000FF
_PWRT_ON_2L                       000000FE
_STVREN_OFF_4L                    000000FE
_STVREN_ON_4L                     000000FF
_USBDIV_1_1L                      000000DF
_USBDIV_2_1L                      000000FF
_VREGEN_OFF_2L                    000000DF
_VREGEN_ON_2L                     000000FF
_WDTPS_1024_2H                    000000F5
_WDTPS_128_2H                     000000EF
_WDTPS_16384_2H                   000000FD
_WDTPS_16_2H                      000000E9
_WDTPS_1_2H                       000000E1
_WDTPS_2048_2H                    000000F7
_WDTPS_256_2H                     000000F1
_WDTPS_2_2H                       000000E3
_WDTPS_32768_2H                   000000FF
_WDTPS_32_2H                      000000EB
_WDTPS_4096_2H                    000000F9
MPASM 5.71  /HOME/FORTHNUTTER/MPLABXPROJECTS   2-14-2017  21:31:00         PAGE 26


SYMBOL TABLE
  LABEL                             VALUE 

_WDTPS_4_2H                       000000E5
_WDTPS_512_2H                     000000F3
_WDTPS_64_2H                      000000ED
_WDTPS_8192_2H                    000000FB
_WDTPS_8_2H                       000000E7
_WDT_OFF_2H                       000000FE
_WDT_ON_2H                        000000FF
_WRT0_OFF_6L                      000000FF
_WRT0_ON_6L                       000000FE
_WRT1_OFF_6L                      000000FF
_WRT1_ON_6L                       000000FD
_WRT2_OFF_6L                      000000FF
_WRT2_ON_6L                       000000FB
_WRT3_OFF_6L                      000000FF
_WRT3_ON_6L                       000000F7
_WRTB_OFF_6H                      000000FF
_WRTB_ON_6H                       000000BF
_WRTC_OFF_6H                      000000FF
_WRTC_ON_6H                       000000DF
_WRTD_OFF_6H                      000000FF
_WRTD_ON_6H                       0000007F
_XINST_OFF_4L                     000000BF
_XINST_ON_4L                      000000FF
__18F4550                         00000001
__DEBUG                           
__MPLAB_DEBUGGER_ICD3             1
dec31                             0000013E
dec32                             0000011C
dec33                             000000DE
fnop4                             00000158
pf_dec3                           00000074
pf_init                           00000154
pf_lsl4                           00000142
pf_tst3                           00000020
pfsend                            00000016
pfstack                           00000000
pftemp                            00000017
tst2                              0000000A
tst2n                             0000001E
tst31                             0000003C
tst32                             00000056
tst33                             00000070
twoexp                            00000000

Errors   :     0
Warnings :     0 reported,     0 suppressed
Messages :     0 reported,     0 suppressed

